{
  "_format": "hh-sol-artifact-1",
  "contractName": "ApeNotReal",
  "sourceName": "contracts/ApeNotReal.sol",
  "abi": [
    {
      "inputs": [
        {
          "internalType": "string",
          "name": "baseURI",
          "type": "string"
        }
      ],
      "stateMutability": "nonpayable",
      "type": "constructor"
    },
    {
      "anonymous": false,
      "inputs": [
        {
          "indexed": true,
          "internalType": "address",
          "name": "owner",
          "type": "address"
        },
        {
          "indexed": true,
          "internalType": "address",
          "name": "approved",
          "type": "address"
        },
        {
          "indexed": true,
          "internalType": "uint256",
          "name": "tokenId",
          "type": "uint256"
        }
      ],
      "name": "Approval",
      "type": "event"
    },
    {
      "anonymous": false,
      "inputs": [
        {
          "indexed": true,
          "internalType": "address",
          "name": "owner",
          "type": "address"
        },
        {
          "indexed": true,
          "internalType": "address",
          "name": "operator",
          "type": "address"
        },
        {
          "indexed": false,
          "internalType": "bool",
          "name": "approved",
          "type": "bool"
        }
      ],
      "name": "ApprovalForAll",
      "type": "event"
    },
    {
      "anonymous": false,
      "inputs": [
        {
          "indexed": true,
          "internalType": "address",
          "name": "previousOwner",
          "type": "address"
        },
        {
          "indexed": true,
          "internalType": "address",
          "name": "newOwner",
          "type": "address"
        }
      ],
      "name": "OwnershipTransferred",
      "type": "event"
    },
    {
      "anonymous": false,
      "inputs": [
        {
          "indexed": true,
          "internalType": "address",
          "name": "from",
          "type": "address"
        },
        {
          "indexed": true,
          "internalType": "address",
          "name": "to",
          "type": "address"
        },
        {
          "indexed": true,
          "internalType": "uint256",
          "name": "tokenId",
          "type": "uint256"
        }
      ],
      "name": "Transfer",
      "type": "event"
    },
    {
      "inputs": [],
      "name": "MAX_PER_MINT",
      "outputs": [
        {
          "internalType": "uint256",
          "name": "",
          "type": "uint256"
        }
      ],
      "stateMutability": "view",
      "type": "function"
    },
    {
      "inputs": [],
      "name": "MAX_SUPPLY",
      "outputs": [
        {
          "internalType": "uint256",
          "name": "",
          "type": "uint256"
        }
      ],
      "stateMutability": "view",
      "type": "function"
    },
    {
      "inputs": [],
      "name": "PRICE",
      "outputs": [
        {
          "internalType": "uint256",
          "name": "",
          "type": "uint256"
        }
      ],
      "stateMutability": "view",
      "type": "function"
    },
    {
      "inputs": [
        {
          "internalType": "address",
          "name": "to",
          "type": "address"
        },
        {
          "internalType": "uint256",
          "name": "tokenId",
          "type": "uint256"
        }
      ],
      "name": "approve",
      "outputs": [],
      "stateMutability": "nonpayable",
      "type": "function"
    },
    {
      "inputs": [
        {
          "internalType": "address",
          "name": "owner",
          "type": "address"
        }
      ],
      "name": "balanceOf",
      "outputs": [
        {
          "internalType": "uint256",
          "name": "",
          "type": "uint256"
        }
      ],
      "stateMutability": "view",
      "type": "function"
    },
    {
      "inputs": [],
      "name": "baseTokenURI",
      "outputs": [
        {
          "internalType": "string",
          "name": "",
          "type": "string"
        }
      ],
      "stateMutability": "view",
      "type": "function"
    },
    {
      "inputs": [
        {
          "internalType": "uint256",
          "name": "tokenId",
          "type": "uint256"
        }
      ],
      "name": "getApproved",
      "outputs": [
        {
          "internalType": "address",
          "name": "",
          "type": "address"
        }
      ],
      "stateMutability": "view",
      "type": "function"
    },
    {
      "inputs": [
        {
          "internalType": "address",
          "name": "owner",
          "type": "address"
        },
        {
          "internalType": "address",
          "name": "operator",
          "type": "address"
        }
      ],
      "name": "isApprovedForAll",
      "outputs": [
        {
          "internalType": "bool",
          "name": "",
          "type": "bool"
        }
      ],
      "stateMutability": "view",
      "type": "function"
    },
    {
      "inputs": [
        {
          "internalType": "uint256",
          "name": "_count",
          "type": "uint256"
        }
      ],
      "name": "mintNFTs",
      "outputs": [],
      "stateMutability": "payable",
      "type": "function"
    },
    {
      "inputs": [],
      "name": "name",
      "outputs": [
        {
          "internalType": "string",
          "name": "",
          "type": "string"
        }
      ],
      "stateMutability": "view",
      "type": "function"
    },
    {
      "inputs": [],
      "name": "owner",
      "outputs": [
        {
          "internalType": "address",
          "name": "",
          "type": "address"
        }
      ],
      "stateMutability": "view",
      "type": "function"
    },
    {
      "inputs": [
        {
          "internalType": "uint256",
          "name": "tokenId",
          "type": "uint256"
        }
      ],
      "name": "ownerOf",
      "outputs": [
        {
          "internalType": "address",
          "name": "",
          "type": "address"
        }
      ],
      "stateMutability": "view",
      "type": "function"
    },
    {
      "inputs": [],
      "name": "renounceOwnership",
      "outputs": [],
      "stateMutability": "nonpayable",
      "type": "function"
    },
    {
      "inputs": [
        {
          "internalType": "address",
          "name": "from",
          "type": "address"
        },
        {
          "internalType": "address",
          "name": "to",
          "type": "address"
        },
        {
          "internalType": "uint256",
          "name": "tokenId",
          "type": "uint256"
        }
      ],
      "name": "safeTransferFrom",
      "outputs": [],
      "stateMutability": "nonpayable",
      "type": "function"
    },
    {
      "inputs": [
        {
          "internalType": "address",
          "name": "from",
          "type": "address"
        },
        {
          "internalType": "address",
          "name": "to",
          "type": "address"
        },
        {
          "internalType": "uint256",
          "name": "tokenId",
          "type": "uint256"
        },
        {
          "internalType": "bytes",
          "name": "data",
          "type": "bytes"
        }
      ],
      "name": "safeTransferFrom",
      "outputs": [],
      "stateMutability": "nonpayable",
      "type": "function"
    },
    {
      "inputs": [
        {
          "internalType": "address",
          "name": "operator",
          "type": "address"
        },
        {
          "internalType": "bool",
          "name": "approved",
          "type": "bool"
        }
      ],
      "name": "setApprovalForAll",
      "outputs": [],
      "stateMutability": "nonpayable",
      "type": "function"
    },
    {
      "inputs": [
        {
          "internalType": "string",
          "name": "_baseTokenURI",
          "type": "string"
        }
      ],
      "name": "setBaseURI",
      "outputs": [],
      "stateMutability": "nonpayable",
      "type": "function"
    },
    {
      "inputs": [
        {
          "internalType": "bytes4",
          "name": "interfaceId",
          "type": "bytes4"
        }
      ],
      "name": "supportsInterface",
      "outputs": [
        {
          "internalType": "bool",
          "name": "",
          "type": "bool"
        }
      ],
      "stateMutability": "view",
      "type": "function"
    },
    {
      "inputs": [],
      "name": "symbol",
      "outputs": [
        {
          "internalType": "string",
          "name": "",
          "type": "string"
        }
      ],
      "stateMutability": "view",
      "type": "function"
    },
    {
      "inputs": [
        {
          "internalType": "uint256",
          "name": "index",
          "type": "uint256"
        }
      ],
      "name": "tokenByIndex",
      "outputs": [
        {
          "internalType": "uint256",
          "name": "",
          "type": "uint256"
        }
      ],
      "stateMutability": "view",
      "type": "function"
    },
    {
      "inputs": [
        {
          "internalType": "address",
          "name": "owner",
          "type": "address"
        },
        {
          "internalType": "uint256",
          "name": "index",
          "type": "uint256"
        }
      ],
      "name": "tokenOfOwnerByIndex",
      "outputs": [
        {
          "internalType": "uint256",
          "name": "",
          "type": "uint256"
        }
      ],
      "stateMutability": "view",
      "type": "function"
    },
    {
      "inputs": [
        {
          "internalType": "uint256",
          "name": "tokenId",
          "type": "uint256"
        }
      ],
      "name": "tokenURI",
      "outputs": [
        {
          "internalType": "string",
          "name": "",
          "type": "string"
        }
      ],
      "stateMutability": "view",
      "type": "function"
    },
    {
      "inputs": [
        {
          "internalType": "address",
          "name": "_owner",
          "type": "address"
        }
      ],
      "name": "tokensOfOwner",
      "outputs": [
        {
          "internalType": "uint256[]",
          "name": "",
          "type": "uint256[]"
        }
      ],
      "stateMutability": "view",
      "type": "function"
    },
    {
      "inputs": [],
      "name": "totalSupply",
      "outputs": [
        {
          "internalType": "uint256",
          "name": "",
          "type": "uint256"
        }
      ],
      "stateMutability": "view",
      "type": "function"
    },
    {
      "inputs": [
        {
          "internalType": "address",
          "name": "from",
          "type": "address"
        },
        {
          "internalType": "address",
          "name": "to",
          "type": "address"
        },
        {
          "internalType": "uint256",
          "name": "tokenId",
          "type": "uint256"
        }
      ],
      "name": "transferFrom",
      "outputs": [],
      "stateMutability": "nonpayable",
      "type": "function"
    },
    {
      "inputs": [
        {
          "internalType": "address",
          "name": "newOwner",
          "type": "address"
        }
      ],
      "name": "transferOwnership",
      "outputs": [],
      "stateMutability": "nonpayable",
      "type": "function"
    },
    {
      "inputs": [],
      "name": "withdraw",
      "outputs": [],
      "stateMutability": "payable",
      "type": "function"
    }
  ],
  "bytecode": "0x60806040523480156200001157600080fd5b50604051620024d8380380620024d88339810160408190526200003491620001ab565b6040518060400160405280600a815260200169105c19539bdd1499585b60b21b8152506040518060400160405280600381526020016220a72960e91b815250816000908162000084919062000311565b50600162000093828262000311565b505050620000b0620000aa620000c260201b60201c565b620000c6565b620000bb8162000118565b50620003dd565b3390565b600a80546001600160a01b038381166001600160a01b0319831681179093556040519116919082907f8be0079c531659141344cd1fd0a4f28419497f9722a3daafe3b4186f6b6457e090600090a35050565b6200012262000134565b600c62000130828262000311565b5050565b600a546001600160a01b03163314620001935760405162461bcd60e51b815260206004820181905260248201527f4f776e61626c653a2063616c6c6572206973206e6f7420746865206f776e6572604482015260640160405180910390fd5b565b634e487b7160e01b600052604160045260246000fd5b60006020808385031215620001bf57600080fd5b82516001600160401b0380821115620001d757600080fd5b818501915085601f830112620001ec57600080fd5b81518181111562000201576200020162000195565b604051601f8201601f19908116603f011681019083821181831017156200022c576200022c62000195565b8160405282815288868487010111156200024557600080fd5b600093505b828410156200026957848401860151818501870152928501926200024a565b600086848301015280965050505050505092915050565b600181811c908216806200029557607f821691505b602082108103620002b657634e487b7160e01b600052602260045260246000fd5b50919050565b601f8211156200030c576000816000526020600020601f850160051c81016020861015620002e75750805b601f850160051c820191505b818110156200030857828155600101620002f3565b5050505b505050565b81516001600160401b038111156200032d576200032d62000195565b62000345816200033e845462000280565b84620002bc565b602080601f8311600181146200037d5760008415620003645750858301515b600019600386901b1c1916600185901b17855562000308565b600085815260208120601f198616915b82811015620003ae578886015182559484019460019091019084016200038d565b5085821015620003cd5787850151600019600388901b60f8161c191681555b5050505050600190811b01905550565b6120eb80620003ed6000396000f3fe60806040526004361061019c5760003560e01c806355f804b3116100ec57806395d89b411161008a578063c87b56dd11610064578063c87b56dd1461046b578063d547cfb71461048b578063e985e9c5146104a0578063f2fde38b146104e957600080fd5b806395d89b4114610416578063a22cb4651461042b578063b88d4fde1461044b57600080fd5b8063715018a6116100c6578063715018a61461039b5780638462151c146103b05780638d859f3e146103dd5780638da5cb5b146103f857600080fd5b806355f804b31461033b5780636352211e1461035b57806370a082311461037b57600080fd5b806323b872dd116101595780633b4b1381116101335780633b4b1381146102e05780633ccfd60b146102f357806342842e0e146102fb5780634f6ccce71461031b57600080fd5b806323b872dd1461028a5780632f745c59146102aa57806332cb6b0c146102ca57600080fd5b806301ffc9a7146101a157806306fdde03146101d6578063081812fc146101f8578063095ea7b31461023057806309d42b301461025257806318160ddd14610275575b600080fd5b3480156101ad57600080fd5b506101c16101bc366004611a45565b610509565b60405190151581526020015b60405180910390f35b3480156101e257600080fd5b506101eb610534565b6040516101cd9190611ab2565b34801561020457600080fd5b50610218610213366004611ac5565b6105c6565b6040516001600160a01b0390911681526020016101cd565b34801561023c57600080fd5b5061025061024b366004611afa565b6105ed565b005b34801561025e57600080fd5b50610267600181565b6040519081526020016101cd565b34801561028157600080fd5b50600854610267565b34801561029657600080fd5b506102506102a5366004611b24565b610707565b3480156102b657600080fd5b506102676102c5366004611afa565b610738565b3480156102d657600080fd5b5061026761271081565b6102506102ee366004611ac5565b6107ce565b61025061091a565b34801561030757600080fd5b50610250610316366004611b24565b6109ff565b34801561032757600080fd5b50610267610336366004611ac5565b610a1a565b34801561034757600080fd5b50610250610356366004611bec565b610aad565b34801561036757600080fd5b50610218610376366004611ac5565b610ac1565b34801561038757600080fd5b50610267610396366004611c35565b610b21565b3480156103a757600080fd5b50610250610ba7565b3480156103bc57600080fd5b506103d06103cb366004611c35565b610bbb565b6040516101cd9190611c50565b3480156103e957600080fd5b50610267662386f26fc1000081565b34801561040457600080fd5b50600a546001600160a01b0316610218565b34801561042257600080fd5b506101eb610c53565b34801561043757600080fd5b50610250610446366004611c94565b610c62565b34801561045757600080fd5b50610250610466366004611cd0565b610c6d565b34801561047757600080fd5b506101eb610486366004611ac5565b610ca5565b34801561049757600080fd5b506101eb610d0c565b3480156104ac57600080fd5b506101c16104bb366004611d4c565b6001600160a01b03918216600090815260056020908152604080832093909416825291909152205460ff1690565b3480156104f557600080fd5b50610250610504366004611c35565b610d9a565b60006001600160e01b0319821663780e9d6360e01b148061052e575061052e82610e13565b92915050565b60606000805461054390611d7f565b80601f016020809104026020016040519081016040528092919081815260200182805461056f90611d7f565b80156105bc5780601f10610591576101008083540402835291602001916105bc565b820191906000526020600020905b81548152906001019060200180831161059f57829003601f168201915b5050505050905090565b60006105d182610e63565b506000908152600460205260409020546001600160a01b031690565b60006105f882610ac1565b9050806001600160a01b0316836001600160a01b03160361066a5760405162461bcd60e51b815260206004820152602160248201527f4552433732313a20617070726f76616c20746f2063757272656e74206f776e656044820152603960f91b60648201526084015b60405180910390fd5b336001600160a01b0382161480610686575061068681336104bb565b6106f85760405162461bcd60e51b815260206004820152603d60248201527f4552433732313a20617070726f76652063616c6c6572206973206e6f7420746f60448201527f6b656e206f776e6572206f7220617070726f76656420666f7220616c6c0000006064820152608401610661565b6107028383610ec2565b505050565b6107113382610f30565b61072d5760405162461bcd60e51b815260040161066190611db9565b610702838383610faf565b600061074383610b21565b82106107a55760405162461bcd60e51b815260206004820152602b60248201527f455243373231456e756d657261626c653a206f776e657220696e646578206f7560448201526a74206f6620626f756e647360a81b6064820152608401610661565b506001600160a01b03919091166000908152600660209081526040808320938352929052205490565b60006107d9600b5490565b90506127106107e88284611120565b11156108295760405162461bcd60e51b815260206004820152601060248201526f4e6f7420656e6f756768204e4654732160801b6044820152606401610661565b61083a662386f26fc100008361112c565b3410156108945760405162461bcd60e51b815260206004820152602260248201527f4e6f7420656e6f75676820657468657220746f207075726368617365204e4654604482015261399760f11b6064820152608401610661565b6000821180156108a5575060018211155b6108ff5760405162461bcd60e51b815260206004820152602560248201527f43616e6e6f74206d696e7420737065636966696564206e756d626572206f662060448201526427232a399760d91b6064820152608401610661565b60005b8281101561070257610912611138565b600101610902565b61092261115d565b47806109705760405162461bcd60e51b815260206004820152601960248201527f4e6f206574686572206c65667420746f207769746864726177000000000000006044820152606401610661565b604051600090339083908381818185875af1925050503d80600081146109b2576040519150601f19603f3d011682016040523d82523d6000602084013e6109b7565b606091505b50509050806109fb5760405162461bcd60e51b815260206004820152601060248201526f2a3930b739b332b9103330b4b632b21760811b6044820152606401610661565b5050565b61070283838360405180602001604052806000815250610c6d565b6000610a2560085490565b8210610a885760405162461bcd60e51b815260206004820152602c60248201527f455243373231456e756d657261626c653a20676c6f62616c20696e646578206f60448201526b7574206f6620626f756e647360a01b6064820152608401610661565b60088281548110610a9b57610a9b611e06565b90600052602060002001549050919050565b610ab561115d565b600c6109fb8282611e6c565b6000818152600260205260408120546001600160a01b03168061052e5760405162461bcd60e51b8152602060048201526018602482015277115490cdcc8c4e881a5b9d985b1a59081d1bdad95b88125160421b6044820152606401610661565b60006001600160a01b038216610b8b5760405162461bcd60e51b815260206004820152602960248201527f4552433732313a2061646472657373207a65726f206973206e6f7420612076616044820152683634b21037bbb732b960b91b6064820152608401610661565b506001600160a01b031660009081526003602052604090205490565b610baf61115d565b610bb960006111b7565b565b60606000610bc883610b21565b905060008167ffffffffffffffff811115610be557610be5611b60565b604051908082528060200260200182016040528015610c0e578160200160208202803683370190505b50905060005b82811015610c4b57610c268582610738565b828281518110610c3857610c38611e06565b6020908102919091010152600101610c14565b509392505050565b60606001805461054390611d7f565b6109fb338383611209565b610c773383610f30565b610c935760405162461bcd60e51b815260040161066190611db9565b610c9f848484846112d7565b50505050565b6060610cb082610e63565b6000610cba61130a565b90506000815111610cda5760405180602001604052806000815250610d05565b80610ce484611319565b604051602001610cf5929190611f2c565b6040516020818303038152906040525b9392505050565b600c8054610d1990611d7f565b80601f0160208091040260200160405190810160405280929190818152602001828054610d4590611d7f565b8015610d925780601f10610d6757610100808354040283529160200191610d92565b820191906000526020600020905b815481529060010190602001808311610d7557829003601f168201915b505050505081565b610da261115d565b6001600160a01b038116610e075760405162461bcd60e51b815260206004820152602660248201527f4f776e61626c653a206e6577206f776e657220697320746865207a65726f206160448201526564647265737360d01b6064820152608401610661565b610e10816111b7565b50565b60006001600160e01b031982166380ac58cd60e01b1480610e4457506001600160e01b03198216635b5e139f60e01b145b8061052e57506301ffc9a760e01b6001600160e01b031983161461052e565b6000818152600260205260409020546001600160a01b0316610e105760405162461bcd60e51b8152602060048201526018602482015277115490cdcc8c4e881a5b9d985b1a59081d1bdad95b88125160421b6044820152606401610661565b600081815260046020526040902080546001600160a01b0319166001600160a01b0384169081179091558190610ef782610ac1565b6001600160a01b03167f8c5be1e5ebec7d5bd14f71427d1e84f3dd0314c0f7b2291e5b200ac8c7c3b92560405160405180910390a45050565b600080610f3c83610ac1565b9050806001600160a01b0316846001600160a01b03161480610f8357506001600160a01b0380821660009081526005602090815260408083209388168352929052205460ff165b80610fa75750836001600160a01b0316610f9c846105c6565b6001600160a01b0316145b949350505050565b826001600160a01b0316610fc282610ac1565b6001600160a01b031614610fe85760405162461bcd60e51b815260040161066190611f5b565b6001600160a01b03821661104a5760405162461bcd60e51b8152602060048201526024808201527f4552433732313a207472616e7366657220746f20746865207a65726f206164646044820152637265737360e01b6064820152608401610661565b61105783838360016113ac565b826001600160a01b031661106a82610ac1565b6001600160a01b0316146110905760405162461bcd60e51b815260040161066190611f5b565b600081815260046020908152604080832080546001600160a01b03199081169091556001600160a01b0387811680865260038552838620805460001901905590871680865283862080546001019055868652600290945282852080549092168417909155905184937fddf252ad1be2c89b69c2b068fc378daa952ba7f163c4a11628f55a4df523b3ef91a4505050565b6000610d058284611fb6565b6000610d058284611fc9565b6000611143600b5490565b905061114f33826114e0565b610e10600b80546001019055565b600a546001600160a01b03163314610bb95760405162461bcd60e51b815260206004820181905260248201527f4f776e61626c653a2063616c6c6572206973206e6f7420746865206f776e65726044820152606401610661565b600a80546001600160a01b038381166001600160a01b0319831681179093556040519116919082907f8be0079c531659141344cd1fd0a4f28419497f9722a3daafe3b4186f6b6457e090600090a35050565b816001600160a01b0316836001600160a01b03160361126a5760405162461bcd60e51b815260206004820152601960248201527f4552433732313a20617070726f766520746f2063616c6c6572000000000000006044820152606401610661565b6001600160a01b03838116600081815260056020908152604080832094871680845294825291829020805460ff191686151590811790915591519182527f17307eab39ab6107e8899845ad3d59bd9653f200f220920489ca2b5937696c31910160405180910390a3505050565b6112e2848484610faf565b6112ee848484846114fa565b610c9f5760405162461bcd60e51b815260040161066190611fe0565b6060600c805461054390611d7f565b60606000611326836115fb565b600101905060008167ffffffffffffffff81111561134657611346611b60565b6040519080825280601f01601f191660200182016040528015611370576020820181803683370190505b5090508181016020015b600019016f181899199a1a9b1b9c1cb0b131b232b360811b600a86061a8153600a850494508461137a57509392505050565b600181111561141b5760405162461bcd60e51b815260206004820152603560248201527f455243373231456e756d657261626c653a20636f6e7365637574697665207472604482015274185b9cd9995c9cc81b9bdd081cdd5c1c1bdc9d1959605a1b6064820152608401610661565b816001600160a01b0385166114775761147281600880546000838152600960205260408120829055600182018355919091527ff3f7a9fe364faab93b216da50a3214154f22a0a2b415b23a84c8169e8b636ee30155565b61149a565b836001600160a01b0316856001600160a01b03161461149a5761149a85826116d3565b6001600160a01b0384166114b6576114b181611770565b6114d9565b846001600160a01b0316846001600160a01b0316146114d9576114d9848261181f565b5050505050565b6109fb828260405180602001604052806000815250611863565b60006001600160a01b0384163b156115f057604051630a85bd0160e11b81526001600160a01b0385169063150b7a029061153e903390899088908890600401612032565b6020604051808303816000875af1925050508015611579575060408051601f3d908101601f191682019092526115769181019061206f565b60015b6115d6573d8080156115a7576040519150601f19603f3d011682016040523d82523d6000602084013e6115ac565b606091505b5080516000036115ce5760405162461bcd60e51b815260040161066190611fe0565b805181602001fd5b6001600160e01b031916630a85bd0160e11b149050610fa7565b506001949350505050565b60008072184f03e93ff9f4daa797ed6e38ed64bf6a1f0160401b831061163a5772184f03e93ff9f4daa797ed6e38ed64bf6a1f0160401b830492506040015b6d04ee2d6d415b85acef81000000008310611666576d04ee2d6d415b85acef8100000000830492506020015b662386f26fc10000831061168457662386f26fc10000830492506010015b6305f5e100831061169c576305f5e100830492506008015b61271083106116b057612710830492506004015b606483106116c2576064830492506002015b600a831061052e5760010192915050565b600060016116e084610b21565b6116ea919061208c565b60008381526007602052604090205490915080821461173d576001600160a01b03841660009081526006602090815260408083208584528252808320548484528184208190558352600790915290208190555b5060009182526007602090815260408084208490556001600160a01b039094168352600681528383209183525290812055565b6008546000906117829060019061208c565b600083815260096020526040812054600880549394509092849081106117aa576117aa611e06565b9060005260206000200154905080600883815481106117cb576117cb611e06565b60009182526020808320909101929092558281526009909152604080822084905585825281205560088054806118035761180361209f565b6001900381819060005260206000200160009055905550505050565b600061182a83610b21565b6001600160a01b039093166000908152600660209081526040808320868452825280832085905593825260079052919091209190915550565b61186d8383611896565b61187a60008484846114fa565b6107025760405162461bcd60e51b815260040161066190611fe0565b6001600160a01b0382166118ec5760405162461bcd60e51b815260206004820181905260248201527f4552433732313a206d696e7420746f20746865207a65726f20616464726573736044820152606401610661565b6000818152600260205260409020546001600160a01b0316156119515760405162461bcd60e51b815260206004820152601c60248201527f4552433732313a20746f6b656e20616c7265616479206d696e746564000000006044820152606401610661565b61195f6000838360016113ac565b6000818152600260205260409020546001600160a01b0316156119c45760405162461bcd60e51b815260206004820152601c60248201527f4552433732313a20746f6b656e20616c7265616479206d696e746564000000006044820152606401610661565b6001600160a01b038216600081815260036020908152604080832080546001019055848352600290915280822080546001600160a01b0319168417905551839291907fddf252ad1be2c89b69c2b068fc378daa952ba7f163c4a11628f55a4df523b3ef908290a45050565b6001600160e01b031981168114610e1057600080fd5b600060208284031215611a5757600080fd5b8135610d0581611a2f565b60005b83811015611a7d578181015183820152602001611a65565b50506000910152565b60008151808452611a9e816020860160208601611a62565b601f01601f19169290920160200192915050565b602081526000610d056020830184611a86565b600060208284031215611ad757600080fd5b5035919050565b80356001600160a01b0381168114611af557600080fd5b919050565b60008060408385031215611b0d57600080fd5b611b1683611ade565b946020939093013593505050565b600080600060608486031215611b3957600080fd5b611b4284611ade565b9250611b5060208501611ade565b9150604084013590509250925092565b634e487b7160e01b600052604160045260246000fd5b600067ffffffffffffffff80841115611b9157611b91611b60565b604051601f8501601f19908116603f01168101908282118183101715611bb957611bb9611b60565b81604052809350858152868686011115611bd257600080fd5b858560208301376000602087830101525050509392505050565b600060208284031215611bfe57600080fd5b813567ffffffffffffffff811115611c1557600080fd5b8201601f81018413611c2657600080fd5b610fa784823560208401611b76565b600060208284031215611c4757600080fd5b610d0582611ade565b6020808252825182820181905260009190848201906040850190845b81811015611c8857835183529284019291840191600101611c6c565b50909695505050505050565b60008060408385031215611ca757600080fd5b611cb083611ade565b915060208301358015158114611cc557600080fd5b809150509250929050565b60008060008060808587031215611ce657600080fd5b611cef85611ade565b9350611cfd60208601611ade565b925060408501359150606085013567ffffffffffffffff811115611d2057600080fd5b8501601f81018713611d3157600080fd5b611d4087823560208401611b76565b91505092959194509250565b60008060408385031215611d5f57600080fd5b611d6883611ade565b9150611d7660208401611ade565b90509250929050565b600181811c90821680611d9357607f821691505b602082108103611db357634e487b7160e01b600052602260045260246000fd5b50919050565b6020808252602d908201527f4552433732313a2063616c6c6572206973206e6f7420746f6b656e206f776e6560408201526c1c881bdc88185c1c1c9bdd9959609a1b606082015260800190565b634e487b7160e01b600052603260045260246000fd5b601f821115610702576000816000526020600020601f850160051c81016020861015611e455750805b601f850160051c820191505b81811015611e6457828155600101611e51565b505050505050565b815167ffffffffffffffff811115611e8657611e86611b60565b611e9a81611e948454611d7f565b84611e1c565b602080601f831160018114611ecf5760008415611eb75750858301515b600019600386901b1c1916600185901b178555611e64565b600085815260208120601f198616915b82811015611efe57888601518255948401946001909101908401611edf565b5085821015611f1c5787850151600019600388901b60f8161c191681555b5050505050600190811b01905550565b60008351611f3e818460208801611a62565b835190830190611f52818360208801611a62565b01949350505050565b60208082526025908201527f4552433732313a207472616e736665722066726f6d20696e636f72726563742060408201526437bbb732b960d91b606082015260800190565b634e487b7160e01b600052601160045260246000fd5b8082018082111561052e5761052e611fa0565b808202811582820484141761052e5761052e611fa0565b60208082526032908201527f4552433732313a207472616e7366657220746f206e6f6e20455243373231526560408201527131b2b4bb32b91034b6b83632b6b2b73a32b960711b606082015260800190565b6001600160a01b038581168252841660208201526040810183905260806060820181905260009061206590830184611a86565b9695505050505050565b60006020828403121561208157600080fd5b8151610d0581611a2f565b8181038181111561052e5761052e611fa0565b634e487b7160e01b600052603160045260246000fdfea2646970667358221220ad45679d2046e3fa54ec8f1a0a2d9280d30213a6805f0f439e3ec4a511c4b8a364736f6c63430008180033",
  "linkReferences": {},
  "deployedLinkReferences": {}
}